{"abi":[{"type":"constructor","inputs":[{"name":"name","type":"string","internalType":"string"},{"name":"symbol","type":"string","internalType":"string"},{"name":"_paymentToken","type":"address","internalType":"address"},{"name":"_price","type":"uint256","internalType":"uint256"}],"stateMutability":"nonpayable"},{"type":"function","name":"admin","inputs":[],"outputs":[{"name":"","type":"address","internalType":"address"}],"stateMutability":"view"},{"type":"function","name":"approve","inputs":[{"name":"to","type":"address","internalType":"address"},{"name":"tokenId","type":"uint256","internalType":"uint256"}],"outputs":[],"stateMutability":"nonpayable"},{"type":"function","name":"balanceOf","inputs":[{"name":"owner","type":"address","internalType":"address"}],"outputs":[{"name":"","type":"uint256","internalType":"uint256"}],"stateMutability":"view"},{"type":"function","name":"getApproved","inputs":[{"name":"tokenId","type":"uint256","internalType":"uint256"}],"outputs":[{"name":"","type":"address","internalType":"address"}],"stateMutability":"view"},{"type":"function","name":"isApprovedForAll","inputs":[{"name":"owner","type":"address","internalType":"address"},{"name":"operator","type":"address","internalType":"address"}],"outputs":[{"name":"","type":"bool","internalType":"bool"}],"stateMutability":"view"},{"type":"function","name":"mintWithERC20","inputs":[{"name":"_tokenURI","type":"string","internalType":"string"},{"name":"_tokenSymbol","type":"string","internalType":"string"}],"outputs":[],"stateMutability":"nonpayable"},{"type":"function","name":"mintWithETH","inputs":[{"name":"_tokenURI","type":"string","internalType":"string"},{"name":"_tokenSymbol","type":"string","internalType":"string"}],"outputs":[],"stateMutability":"payable"},{"type":"function","name":"name","inputs":[],"outputs":[{"name":"","type":"string","internalType":"string"}],"stateMutability":"view"},{"type":"function","name":"nextTokenId","inputs":[],"outputs":[{"name":"","type":"uint256","internalType":"uint256"}],"stateMutability":"view"},{"type":"function","name":"owner","inputs":[],"outputs":[{"name":"","type":"address","internalType":"address"}],"stateMutability":"view"},{"type":"function","name":"ownerOf","inputs":[{"name":"tokenId","type":"uint256","internalType":"uint256"}],"outputs":[{"name":"","type":"address","internalType":"address"}],"stateMutability":"view"},{"type":"function","name":"paymentToken","inputs":[],"outputs":[{"name":"","type":"address","internalType":"contract IERC20"}],"stateMutability":"view"},{"type":"function","name":"price","inputs":[],"outputs":[{"name":"","type":"uint256","internalType":"uint256"}],"stateMutability":"view"},{"type":"function","name":"renounceOwnership","inputs":[],"outputs":[],"stateMutability":"nonpayable"},{"type":"function","name":"safeTransferFrom","inputs":[{"name":"from","type":"address","internalType":"address"},{"name":"to","type":"address","internalType":"address"},{"name":"tokenId","type":"uint256","internalType":"uint256"}],"outputs":[],"stateMutability":"nonpayable"},{"type":"function","name":"safeTransferFrom","inputs":[{"name":"from","type":"address","internalType":"address"},{"name":"to","type":"address","internalType":"address"},{"name":"tokenId","type":"uint256","internalType":"uint256"},{"name":"data","type":"bytes","internalType":"bytes"}],"outputs":[],"stateMutability":"nonpayable"},{"type":"function","name":"setApprovalForAll","inputs":[{"name":"operator","type":"address","internalType":"address"},{"name":"approved","type":"bool","internalType":"bool"}],"outputs":[],"stateMutability":"nonpayable"},{"type":"function","name":"setPaymentTokenAndPrice","inputs":[{"name":"_tokenAddress","type":"address","internalType":"address"},{"name":"_price","type":"uint256","internalType":"uint256"}],"outputs":[],"stateMutability":"nonpayable"},{"type":"function","name":"supportsInterface","inputs":[{"name":"interfaceId","type":"bytes4","internalType":"bytes4"}],"outputs":[{"name":"","type":"bool","internalType":"bool"}],"stateMutability":"view"},{"type":"function","name":"symbol","inputs":[],"outputs":[{"name":"","type":"string","internalType":"string"}],"stateMutability":"view"},{"type":"function","name":"tokenExists","inputs":[{"name":"tokenId","type":"uint256","internalType":"uint256"}],"outputs":[{"name":"","type":"bool","internalType":"bool"}],"stateMutability":"view"},{"type":"function","name":"tokenSymbol","inputs":[{"name":"tokenId","type":"uint256","internalType":"uint256"}],"outputs":[{"name":"","type":"string","internalType":"string"}],"stateMutability":"view"},{"type":"function","name":"tokenURI","inputs":[{"name":"tokenId","type":"uint256","internalType":"uint256"}],"outputs":[{"name":"","type":"string","internalType":"string"}],"stateMutability":"view"},{"type":"function","name":"totalSupply","inputs":[],"outputs":[{"name":"","type":"uint256","internalType":"uint256"}],"stateMutability":"view"},{"type":"function","name":"transferFrom","inputs":[{"name":"from","type":"address","internalType":"address"},{"name":"to","type":"address","internalType":"address"},{"name":"tokenId","type":"uint256","internalType":"uint256"}],"outputs":[],"stateMutability":"nonpayable"},{"type":"function","name":"transferOwnership","inputs":[{"name":"newOwner","type":"address","internalType":"address"}],"outputs":[],"stateMutability":"nonpayable"},{"type":"event","name":"Approval","inputs":[{"name":"owner","type":"address","indexed":true,"internalType":"address"},{"name":"approved","type":"address","indexed":true,"internalType":"address"},{"name":"tokenId","type":"uint256","indexed":true,"internalType":"uint256"}],"anonymous":false},{"type":"event","name":"ApprovalForAll","inputs":[{"name":"owner","type":"address","indexed":true,"internalType":"address"},{"name":"operator","type":"address","indexed":true,"internalType":"address"},{"name":"approved","type":"bool","indexed":false,"internalType":"bool"}],"anonymous":false},{"type":"event","name":"Error","inputs":[{"name":"message","type":"string","indexed":false,"internalType":"string"}],"anonymous":false},{"type":"event","name":"MintedWithERC20","inputs":[{"name":"to","type":"address","indexed":false,"internalType":"address"},{"name":"tokenId","type":"uint256","indexed":false,"internalType":"uint256"},{"name":"tokenURI","type":"string","indexed":false,"internalType":"string"}],"anonymous":false},{"type":"event","name":"OwnershipTransferred","inputs":[{"name":"previousOwner","type":"address","indexed":true,"internalType":"address"},{"name":"newOwner","type":"address","indexed":true,"internalType":"address"}],"anonymous":false},{"type":"event","name":"PaymentReceived","inputs":[{"name":"from","type":"address","indexed":false,"internalType":"address"},{"name":"amount","type":"uint256","indexed":false,"internalType":"uint256"}],"anonymous":false},{"type":"event","name":"PaymentTokenAddressSet","inputs":[{"name":"tokenAddress","type":"address","indexed":false,"internalType":"address"}],"anonymous":false},{"type":"event","name":"PriceSet","inputs":[{"name":"price","type":"uint256","indexed":false,"internalType":"uint256"}],"anonymous":false},{"type":"event","name":"Transfer","inputs":[{"name":"from","type":"address","indexed":true,"internalType":"address"},{"name":"to","type":"address","indexed":true,"internalType":"address"},{"name":"tokenId","type":"uint256","indexed":true,"internalType":"uint256"}],"anonymous":false},{"type":"event","name":"TreasurySet","inputs":[{"name":"treasuryAddress","type":"address","indexed":false,"internalType":"address"}],"anonymous":false},{"type":"error","name":"ERC721IncorrectOwner","inputs":[{"name":"sender","type":"address","internalType":"address"},{"name":"tokenId","type":"uint256","internalType":"uint256"},{"name":"owner","type":"address","internalType":"address"}]},{"type":"error","name":"ERC721InsufficientApproval","inputs":[{"name":"operator","type":"address","internalType":"address"},{"name":"tokenId","type":"uint256","internalType":"uint256"}]},{"type":"error","name":"ERC721InvalidApprover","inputs":[{"name":"approver","type":"address","internalType":"address"}]},{"type":"error","name":"ERC721InvalidOperator","inputs":[{"name":"operator","type":"address","internalType":"address"}]},{"type":"error","name":"ERC721InvalidOwner","inputs":[{"name":"owner","type":"address","internalType":"address"}]},{"type":"error","name":"ERC721InvalidReceiver","inputs":[{"name":"receiver","type":"address","internalType":"address"}]},{"type":"error","name":"ERC721InvalidSender","inputs":[{"name":"sender","type":"address","internalType":"address"}]},{"type":"error","name":"ERC721NonexistentToken","inputs":[{"name":"tokenId","type":"uint256","internalType":"uint256"}]},{"type":"error","name":"OwnableInvalidOwner","inputs":[{"name":"owner","type":"address","internalType":"address"}]},{"type":"error","name":"OwnableUnauthorizedAccount","inputs":[{"name":"account","type":"address","internalType":"address"}]}],"bytecode":{"object":"0x60806040526000600a556001600b5534801561001a57600080fd5b50604051611d3f380380611d3f833981016040819052610039916101d8565b8383338282600061004a83826102ee565b50600161005782826102ee565b5050506001600160a01b03811661008857604051631e4fbdf760e01b81526000600482015260240160405180910390fd5b610091816100c8565b5050600880546001600160a01b039094166001600160a01b031994851617905550600955600c805490911633179055506103ad9050565b600680546001600160a01b038381166001600160a01b0319831681179093556040519116919082907f8be0079c531659141344cd1fd0a4f28419497f9722a3daafe3b4186f6b6457e090600090a35050565b634e487b7160e01b600052604160045260246000fd5b600082601f83011261014157600080fd5b81516001600160401b038082111561015b5761015b61011a565b604051601f8301601f19908116603f011681019082821181831017156101835761018361011a565b81604052838152602092508660208588010111156101a057600080fd5b600091505b838210156101c257858201830151818301840152908201906101a5565b6000602085830101528094505050505092915050565b600080600080608085870312156101ee57600080fd5b84516001600160401b038082111561020557600080fd5b61021188838901610130565b9550602087015191508082111561022757600080fd5b5061023487828801610130565b604087015190945090506001600160a01b038116811461025357600080fd5b6060959095015193969295505050565b600181811c9082168061027757607f821691505b60208210810361029757634e487b7160e01b600052602260045260246000fd5b50919050565b601f8211156102e9576000816000526020600020601f850160051c810160208610156102c65750805b601f850160051c820191505b818110156102e5578281556001016102d2565b5050505b505050565b81516001600160401b038111156103075761030761011a565b61031b816103158454610263565b8461029d565b602080601f83116001811461035057600084156103385750858301515b600019600386901b1c1916600185901b1785556102e5565b600085815260208120601f198616915b8281101561037f57888601518255948401946001909101908401610360565b508582101561039d5787850151600019600388901b60f8161c191681555b5050505050600190811b01905550565b611983806103bc6000396000f3fe6080604052600436106101805760003560e01c806370a08231116100d1578063a22cb4651161008a578063dad4225911610064578063dad422591461043c578063e985e9c51461045c578063f2fde38b1461047c578063f851a4401461049c57600080fd5b8063a22cb465146103dc578063b88d4fde146103fc578063c87b56dd1461041c57600080fd5b806370a0823114610348578063715018a61461036857806375794a3c1461037d5780638da5cb5b1461039357806395d89b41146103b1578063a035b1fe146103c657600080fd5b806318160ddd1161013e5780633013ce29116101185780633013ce29146102c85780633d6853b1146102e857806342842e0e146103085780636352211e1461032857600080fd5b806318160ddd1461027657806323b872dd146102955780632ecb4dd0146102b557600080fd5b8062923f9e1461018557806301ffc9a7146101ba57806306fdde03146101da578063081812fc146101fc578063095ea7b31461023457806317fd1d8014610256575b600080fd5b34801561019157600080fd5b506101a56101a03660046113e7565b6104bc565b60405190151581526020015b60405180910390f35b3480156101c657600080fd5b506101a56101d5366004611416565b61052c565b3480156101e657600080fd5b506101ef61057e565b6040516101b19190611480565b34801561020857600080fd5b5061021c6102173660046113e7565b610610565b6040516001600160a01b0390911681526020016101b1565b34801561024057600080fd5b5061025461024f3660046114a8565b610639565b005b34801561026257600080fd5b506101ef6102713660046113e7565b610648565b34801561028257600080fd5b50600a545b6040519081526020016101b1565b3480156102a157600080fd5b506102546102b03660046114d4565b61073a565b6102546102c33660046115c1565b6107c5565b3480156102d457600080fd5b5060085461021c906001600160a01b031681565b3480156102f457600080fd5b506102546103033660046115c1565b610867565b34801561031457600080fd5b506102546103233660046114d4565b610b0b565b34801561033457600080fd5b5061021c6103433660046113e7565b610b2b565b34801561035457600080fd5b50610287610363366004611625565b610b36565b34801561037457600080fd5b50610254610b7e565b34801561038957600080fd5b50610287600b5481565b34801561039f57600080fd5b506006546001600160a01b031661021c565b3480156103bd57600080fd5b506101ef610b92565b3480156103d257600080fd5b5061028760095481565b3480156103e857600080fd5b506102546103f7366004611650565b610ba1565b34801561040857600080fd5b50610254610417366004611689565b610bac565b34801561042857600080fd5b506101ef6104373660046113e7565b610bc4565b34801561044857600080fd5b506102546104573660046114a8565b610c4c565b34801561046857600080fd5b506101a5610477366004611709565b610d3e565b34801561048857600080fd5b50610254610497366004611625565b610d6c565b3480156104a857600080fd5b50600c5461021c906001600160a01b031681565b6040516331a9108f60e11b8152600481018290526000903090636352211e90602401602060405180830381865afa925050508015610517575060408051601f3d908101601f1916820190925261051491810190611737565b60015b61052357506000919050565b50600192915050565b60006001600160e01b031982166380ac58cd60e01b148061055d57506001600160e01b03198216635b5e139f60e01b145b8061057857506301ffc9a760e01b6001600160e01b03198316145b92915050565b60606000805461058d90611754565b80601f01602080910402602001604051908101604052809291908181526020018280546105b990611754565b80156106065780601f106105db57610100808354040283529160200191610606565b820191906000526020600020905b8154815290600101906020018083116105e957829003601f168201915b5050505050905090565b600061061b82610daa565b506000828152600460205260409020546001600160a01b0316610578565b610644828233610de3565b5050565b6060610653826104bc565b61069c5760405162461bcd60e51b81526020600482015260156024820152742a37b5b2b7103237b2b9903737ba1032bc34b9ba1760591b60448201526064015b60405180910390fd5b6000828152600e6020526040902080546106b590611754565b80601f01602080910402602001604051908101604052809291908181526020018280546106e190611754565b801561072e5780601f106107035761010080835404028352916020019161072e565b820191906000526020600020905b81548152906001019060200180831161071157829003601f168201915b50505050509050919050565b6001600160a01b03821661076457604051633250574960e11b815260006004820152602401610693565b6000610771838333610df0565b9050836001600160a01b0316816001600160a01b0316146107bf576040516364283d7b60e01b81526001600160a01b0380861660048301526024820184905282166044820152606401610693565b50505050565b60095434101561080f5760405162461bcd60e51b8152602060048201526015602482015274125b9cdd59999a58da595b9d08115512081cd95b9d605a1b6044820152606401610693565b600b8054600091826108208361178e565b9190505590506108303382610ee9565b61083a8184610f4e565b600a805490600061084a8361178e565b90915550506000818152600e602052604090206107bf83826117fd565b600854604051636eb1769f60e11b81523360048201523060248201526000916001600160a01b03169063dd62ed3e90604401602060405180830381865afa1580156108b6573d6000803e3d6000fd5b505050506040513d601f19601f820116820180604052508101906108da91906118bd565b905060095481101561092e5760405162461bcd60e51b815260206004820152601760248201527f455243323020616c6c6f77616e636520746f6f206c6f770000000000000000006044820152606401610693565b6008546040516370a0823160e01b81523360048201526000916001600160a01b0316906370a0823190602401602060405180830381865afa158015610977573d6000803e3d6000fd5b505050506040513d601f19601f8201168201806040525081019061099b91906118bd565b90506009548110156109ef5760405162461bcd60e51b815260206004820152601a60248201527f496e73756666696369656e7420746f6b656e2062616c616e63650000000000006044820152606401610693565b6008546009546040516323b872dd60e01b815233600482015230602482015260448101919091526001600160a01b03909116906323b872dd906064016020604051808303816000875af1158015610a4a573d6000803e3d6000fd5b505050506040513d601f19601f82011682018060405250810190610a6e91906118d6565b610aab5760405162461bcd60e51b815260206004820152600e60248201526d14185e5b595b9d0819985a5b195960921b6044820152606401610693565b600b805460009182610abc8361178e565b919050559050610acc3382610ee9565b610ad68186610f4e565b600a8054906000610ae68361178e565b90915550506000818152600e60205260409020610b0385826117fd565b505050505050565b610b2683838360405180602001604052806000815250610bac565b505050565b600061057882610daa565b60006001600160a01b038216610b62576040516322718ad960e21b815260006004820152602401610693565b506001600160a01b031660009081526003602052604090205490565b610b86610fd0565b610b906000610ffd565b565b60606001805461058d90611754565b61064433838361104f565b610bb784848461073a565b6107bf33858585856110ee565b6060610bcf826104bc565b610c335760405162461bcd60e51b815260206004820152602f60248201527f4552433732314d657461646174613a2055524920717565727920666f72206e6f60448201526e3732bc34b9ba32b73a103a37b5b2b760891b6064820152608401610693565b6000828152600d6020526040902080546106b590611754565b600c546001600160a01b03163314610cb15760405162461bcd60e51b815260206004820152602260248201527f4f6e6c792061646d696e2063616e2073657420746f6b656e20616e6420707269604482015261636560f01b6064820152608401610693565b600880546001600160a01b0319166001600160a01b0384169081179091556040519081527f93b49b2b1038531f3fb7301e978b922135804ae0a7dca62d4d3cc51c80dbc1999060200160405180910390a160098190556040518181527f6bfd5e75539a9d2626425a2e2922675256b219fe546d63dad56011759b9a2f669060200160405180910390a15050565b6001600160a01b03918216600090815260056020908152604080832093909416825291909152205460ff1690565b610d74610fd0565b6001600160a01b038116610d9e57604051631e4fbdf760e01b815260006004820152602401610693565b610da781610ffd565b50565b6000818152600260205260408120546001600160a01b03168061057857604051637e27328960e01b815260048101849052602401610693565b610b268383836001611217565b6000828152600260205260408120546001600160a01b0390811690831615610e1d57610e1d81848661131d565b6001600160a01b03811615610e5b57610e3a600085600080611217565b6001600160a01b038116600090815260036020526040902080546000190190555b6001600160a01b03851615610e8a576001600160a01b0385166000908152600360205260409020805460010190555b60008481526002602052604080822080546001600160a01b0319166001600160a01b0389811691821790925591518793918516917fddf252ad1be2c89b69c2b068fc378daa952ba7f163c4a11628f55a4df523b3ef91a4949350505050565b6001600160a01b038216610f1357604051633250574960e11b815260006004820152602401610693565b6000610f2183836000610df0565b90506001600160a01b03811615610b26576040516339e3563760e11b815260006004820152602401610693565b610f57826104bc565b610fb85760405162461bcd60e51b815260206004820152602c60248201527f4552433732314d657461646174613a2055524920736574206f66206e6f6e657860448201526b34b9ba32b73a103a37b5b2b760a11b6064820152608401610693565b6000828152600d60205260409020610b2682826117fd565b6006546001600160a01b03163314610b905760405163118cdaa760e01b8152336004820152602401610693565b600680546001600160a01b038381166001600160a01b0319831681179093556040519116919082907f8be0079c531659141344cd1fd0a4f28419497f9722a3daafe3b4186f6b6457e090600090a35050565b6001600160a01b03821661108157604051630b61174360e31b81526001600160a01b0383166004820152602401610693565b6001600160a01b03838116600081815260056020908152604080832094871680845294825291829020805460ff191686151590811790915591519182527f17307eab39ab6107e8899845ad3d59bd9653f200f220920489ca2b5937696c31910160405180910390a3505050565b6001600160a01b0383163b1561121057604051630a85bd0160e11b81526001600160a01b0384169063150b7a02906111309088908890879087906004016118f3565b6020604051808303816000875af192505050801561116b575060408051601f3d908101601f1916820190925261116891810190611930565b60015b6111d4573d808015611199576040519150601f19603f3d011682016040523d82523d6000602084013e61119e565b606091505b5080516000036111cc57604051633250574960e11b81526001600160a01b0385166004820152602401610693565b805181602001fd5b6001600160e01b03198116630a85bd0160e11b14610b0357604051633250574960e11b81526001600160a01b0385166004820152602401610693565b5050505050565b808061122b57506001600160a01b03821615155b156112ed57600061123b84610daa565b90506001600160a01b038316158015906112675750826001600160a01b0316816001600160a01b031614155b801561127a57506112788184610d3e565b155b156112a35760405163a9fbf51f60e01b81526001600160a01b0384166004820152602401610693565b81156112eb5783856001600160a01b0316826001600160a01b03167f8c5be1e5ebec7d5bd14f71427d1e84f3dd0314c0f7b2291e5b200ac8c7c3b92560405160405180910390a45b505b5050600090815260046020526040902080546001600160a01b0319166001600160a01b0392909216919091179055565b611328838383611381565b610b26576001600160a01b03831661135657604051637e27328960e01b815260048101829052602401610693565b60405163177e802f60e01b81526001600160a01b038316600482015260248101829052604401610693565b60006001600160a01b038316158015906113df5750826001600160a01b0316846001600160a01b031614806113bb57506113bb8484610d3e565b806113df57506000828152600460205260409020546001600160a01b038481169116145b949350505050565b6000602082840312156113f957600080fd5b5035919050565b6001600160e01b031981168114610da757600080fd5b60006020828403121561142857600080fd5b813561143381611400565b9392505050565b6000815180845260005b8181101561146057602081850181015186830182015201611444565b506000602082860101526020601f19601f83011685010191505092915050565b602081526000611433602083018461143a565b6001600160a01b0381168114610da757600080fd5b600080604083850312156114bb57600080fd5b82356114c681611493565b946020939093013593505050565b6000806000606084860312156114e957600080fd5b83356114f481611493565b9250602084013561150481611493565b929592945050506040919091013590565b634e487b7160e01b600052604160045260246000fd5b600067ffffffffffffffff8084111561154657611546611515565b604051601f8501601f19908116603f0116810190828211818310171561156e5761156e611515565b8160405280935085815286868601111561158757600080fd5b858560208301376000602087830101525050509392505050565b600082601f8301126115b257600080fd5b6114338383356020850161152b565b600080604083850312156115d457600080fd5b823567ffffffffffffffff808211156115ec57600080fd5b6115f8868387016115a1565b9350602085013591508082111561160e57600080fd5b5061161b858286016115a1565b9150509250929050565b60006020828403121561163757600080fd5b813561143381611493565b8015158114610da757600080fd5b6000806040838503121561166357600080fd5b823561166e81611493565b9150602083013561167e81611642565b809150509250929050565b6000806000806080858703121561169f57600080fd5b84356116aa81611493565b935060208501356116ba81611493565b925060408501359150606085013567ffffffffffffffff8111156116dd57600080fd5b8501601f810187136116ee57600080fd5b6116fd8782356020840161152b565b91505092959194509250565b6000806040838503121561171c57600080fd5b823561172781611493565b9150602083013561167e81611493565b60006020828403121561174957600080fd5b815161143381611493565b600181811c9082168061176857607f821691505b60208210810361178857634e487b7160e01b600052602260045260246000fd5b50919050565b6000600182016117ae57634e487b7160e01b600052601160045260246000fd5b5060010190565b601f821115610b26576000816000526020600020601f850160051c810160208610156117de5750805b601f850160051c820191505b81811015610b03578281556001016117ea565b815167ffffffffffffffff81111561181757611817611515565b61182b816118258454611754565b846117b5565b602080601f83116001811461186057600084156118485750858301515b600019600386901b1c1916600185901b178555610b03565b600085815260208120601f198616915b8281101561188f57888601518255948401946001909101908401611870565b50858210156118ad5787850151600019600388901b60f8161c191681555b5050505050600190811b01905550565b6000602082840312156118cf57600080fd5b5051919050565b6000602082840312156118e857600080fd5b815161143381611642565b6001600160a01b03858116825284166020820152604081018390526080606082018190526000906119269083018461143a565b9695505050505050565b60006020828403121561194257600080fd5b81516114338161140056fea2646970667358221220a252c84adcc5983ea2153b9200c54e858d3742c66bf4f9dc6bf125c3b435419e64736f6c63430008190033","linkReferences":{}},"methodIdentifiers":{"admin()":"f851a440","approve(address,uint256)":"095ea7b3","balanceOf(address)":"70a08231","getApproved(uint256)":"081812fc","isApprovedForAll(address,address)":"e985e9c5","mintWithERC20(string,string)":"3d6853b1","mintWithETH(string,string)":"2ecb4dd0","name()":"06fdde03","nextTokenId()":"75794a3c","owner()":"8da5cb5b","ownerOf(uint256)":"6352211e","paymentToken()":"3013ce29","price()":"a035b1fe","renounceOwnership()":"715018a6","safeTransferFrom(address,address,uint256)":"42842e0e","safeTransferFrom(address,address,uint256,bytes)":"b88d4fde","setApprovalForAll(address,bool)":"a22cb465","setPaymentTokenAndPrice(address,uint256)":"dad42259","supportsInterface(bytes4)":"01ffc9a7","symbol()":"95d89b41","tokenExists(uint256)":"00923f9e","tokenSymbol(uint256)":"17fd1d80","tokenURI(uint256)":"c87b56dd","totalSupply()":"18160ddd","transferFrom(address,address,uint256)":"23b872dd","transferOwnership(address)":"f2fde38b"},"id":17}