{"abi":[{"type":"constructor","inputs":[],"stateMutability":"nonpayable"},{"type":"function","name":"admin","inputs":[],"outputs":[{"name":"","type":"address","internalType":"address"}],"stateMutability":"view"},{"type":"function","name":"approve","inputs":[{"name":"spender","type":"address","internalType":"address"},{"name":"id","type":"uint256","internalType":"uint256"}],"outputs":[],"stateMutability":"nonpayable"},{"type":"function","name":"balanceOf","inputs":[{"name":"owner","type":"address","internalType":"address"}],"outputs":[{"name":"","type":"uint256","internalType":"uint256"}],"stateMutability":"view"},{"type":"function","name":"getApproved","inputs":[{"name":"","type":"uint256","internalType":"uint256"}],"outputs":[{"name":"","type":"address","internalType":"address"}],"stateMutability":"view"},{"type":"function","name":"isApprovedForAll","inputs":[{"name":"","type":"address","internalType":"address"},{"name":"","type":"address","internalType":"address"}],"outputs":[{"name":"","type":"bool","internalType":"bool"}],"stateMutability":"view"},{"type":"function","name":"mint","inputs":[{"name":"to","type":"address","internalType":"address"},{"name":"tokenURI","type":"string","internalType":"string"}],"outputs":[],"stateMutability":"nonpayable"},{"type":"function","name":"name","inputs":[],"outputs":[{"name":"","type":"string","internalType":"string"}],"stateMutability":"view"},{"type":"function","name":"nextTokenId","inputs":[],"outputs":[{"name":"","type":"uint256","internalType":"uint256"}],"stateMutability":"view"},{"type":"function","name":"ownerOf","inputs":[{"name":"id","type":"uint256","internalType":"uint256"}],"outputs":[{"name":"owner","type":"address","internalType":"address"}],"stateMutability":"view"},{"type":"function","name":"safeTransferFrom","inputs":[{"name":"from","type":"address","internalType":"address"},{"name":"to","type":"address","internalType":"address"},{"name":"id","type":"uint256","internalType":"uint256"}],"outputs":[],"stateMutability":"nonpayable"},{"type":"function","name":"safeTransferFrom","inputs":[{"name":"from","type":"address","internalType":"address"},{"name":"to","type":"address","internalType":"address"},{"name":"id","type":"uint256","internalType":"uint256"},{"name":"data","type":"bytes","internalType":"bytes"}],"outputs":[],"stateMutability":"nonpayable"},{"type":"function","name":"setApprovalForAll","inputs":[{"name":"operator","type":"address","internalType":"address"},{"name":"approved","type":"bool","internalType":"bool"}],"outputs":[],"stateMutability":"nonpayable"},{"type":"function","name":"supportsInterface","inputs":[{"name":"interfaceId","type":"bytes4","internalType":"bytes4"}],"outputs":[{"name":"","type":"bool","internalType":"bool"}],"stateMutability":"view"},{"type":"function","name":"symbol","inputs":[],"outputs":[{"name":"","type":"string","internalType":"string"}],"stateMutability":"view"},{"type":"function","name":"tokenURI","inputs":[{"name":"tokenId","type":"uint256","internalType":"uint256"}],"outputs":[{"name":"","type":"string","internalType":"string"}],"stateMutability":"view"},{"type":"function","name":"totalSupply","inputs":[],"outputs":[{"name":"","type":"uint256","internalType":"uint256"}],"stateMutability":"view"},{"type":"function","name":"transferFrom","inputs":[{"name":"from","type":"address","internalType":"address"},{"name":"to","type":"address","internalType":"address"},{"name":"id","type":"uint256","internalType":"uint256"}],"outputs":[],"stateMutability":"nonpayable"},{"type":"event","name":"Approval","inputs":[{"name":"owner","type":"address","indexed":true,"internalType":"address"},{"name":"spender","type":"address","indexed":true,"internalType":"address"},{"name":"id","type":"uint256","indexed":true,"internalType":"uint256"}],"anonymous":false},{"type":"event","name":"ApprovalForAll","inputs":[{"name":"owner","type":"address","indexed":true,"internalType":"address"},{"name":"operator","type":"address","indexed":true,"internalType":"address"},{"name":"approved","type":"bool","indexed":false,"internalType":"bool"}],"anonymous":false},{"type":"event","name":"Transfer","inputs":[{"name":"from","type":"address","indexed":true,"internalType":"address"},{"name":"to","type":"address","indexed":true,"internalType":"address"},{"name":"id","type":"uint256","indexed":true,"internalType":"uint256"}],"anonymous":false}],"bytecode":{"object":"0x60806040526000600655600160075534801561001a57600080fd5b5060405180604001604052806005815260200164135e53919560da1b815250604051806040016040528060048152602001631353919560e21b8152508160009081610065919061012d565b506001610072828261012d565b5050600880546001600160a01b03191633179055506101ec565b634e487b7160e01b600052604160045260246000fd5b600181811c908216806100b657607f821691505b6020821081036100d657634e487b7160e01b600052602260045260246000fd5b50919050565b601f821115610128576000816000526020600020601f850160051c810160208610156101055750805b601f850160051c820191505b8181101561012457828155600101610111565b5050505b505050565b81516001600160401b038111156101465761014661008c565b61015a8161015484546100a2565b846100dc565b602080601f83116001811461018f57600084156101775750858301515b600019600386901b1c1916600185901b178555610124565b600085815260208120601f198616915b828110156101be5788860151825594840194600190910190840161019f565b50858210156101dc5787850151600019600388901b60f8161c191681555b5050505050600190811b01905550565b611147806101fb6000396000f3fe608060405234801561001057600080fd5b506004361061010b5760003560e01c806370a08231116100a2578063b88d4fde11610071578063b88d4fde14610225578063c87b56dd14610238578063d0def5211461024b578063e985e9c51461025e578063f851a4401461028c57600080fd5b806370a08231146101ee57806375794a3c1461020157806395d89b411461020a578063a22cb4651461021257600080fd5b806318160ddd116100de57806318160ddd146101a357806323b872dd146101b557806342842e0e146101c85780636352211e146101db57600080fd5b806301ffc9a71461011057806306fdde0314610138578063081812fc1461014d578063095ea7b31461018e575b600080fd5b61012361011e366004610c29565b61029f565b60405190151581526020015b60405180910390f35b6101406102f1565b60405161012f9190610c4d565b61017661015b366004610c9c565b6004602052600090815260409020546001600160a01b031681565b6040516001600160a01b03909116815260200161012f565b6101a161019c366004610ccc565b61037f565b005b6006545b60405190815260200161012f565b6101a16101c3366004610cf6565b610466565b6101a16101d6366004610cf6565b61062d565b6101766101e9366004610c9c565b610725565b6101a76101fc366004610d32565b61077c565b6101a760075481565b6101406107df565b6101a1610220366004610d4d565b6107ec565b6101a1610233366004610d89565b610858565b610140610246366004610c9c565b610940565b6101a1610259366004610e3a565b610a5d565b61012361026c366004610efc565b600560209081526000928352604080842090915290825290205460ff1681565b600854610176906001600160a01b031681565b60006301ffc9a760e01b6001600160e01b0319831614806102d057506380ac58cd60e01b6001600160e01b03198316145b806102eb5750635b5e139f60e01b6001600160e01b03198316145b92915050565b600080546102fe90610f2f565b80601f016020809104026020016040519081016040528092919081815260200182805461032a90610f2f565b80156103775780601f1061034c57610100808354040283529160200191610377565b820191906000526020600020905b81548152906001019060200180831161035a57829003601f168201915b505050505081565b6000818152600260205260409020546001600160a01b0316338114806103c857506001600160a01b038116600090815260056020908152604080832033845290915290205460ff165b61040a5760405162461bcd60e51b815260206004820152600e60248201526d1393d517d055551213d49256915160921b60448201526064015b60405180910390fd5b60008281526004602052604080822080546001600160a01b0319166001600160a01b0387811691821790925591518593918516917f8c5be1e5ebec7d5bd14f71427d1e84f3dd0314c0f7b2291e5b200ac8c7c3b92591a4505050565b6000818152600260205260409020546001600160a01b038481169116146104bc5760405162461bcd60e51b815260206004820152600a60248201526957524f4e475f46524f4d60b01b6044820152606401610401565b6001600160a01b0382166105065760405162461bcd60e51b81526020600482015260116024820152701253959053125117d49150d25412515395607a1b6044820152606401610401565b336001600160a01b038416148061054057506001600160a01b038316600090815260056020908152604080832033845290915290205460ff165b8061056157506000818152600460205260409020546001600160a01b031633145b61059e5760405162461bcd60e51b815260206004820152600e60248201526d1393d517d055551213d49256915160921b6044820152606401610401565b6001600160a01b0380841660008181526003602090815260408083208054600019019055938616808352848320805460010190558583526002825284832080546001600160a01b03199081168317909155600490925284832080549092169091559251849392917fddf252ad1be2c89b69c2b068fc378daa952ba7f163c4a11628f55a4df523b3ef91a4505050565b610638838383610466565b6001600160a01b0382163b15806106e15750604051630a85bd0160e11b8082523360048301526001600160a01b03858116602484015260448301849052608060648401526000608484015290919084169063150b7a029060a4016020604051808303816000875af11580156106b1573d6000803e3d6000fd5b505050506040513d601f19601f820116820180604052508101906106d59190610f69565b6001600160e01b031916145b6107205760405162461bcd60e51b815260206004820152601060248201526f155394d0519157d49150d2541251539560821b6044820152606401610401565b505050565b6000818152600260205260409020546001600160a01b0316806107775760405162461bcd60e51b815260206004820152600a6024820152691393d517d3525395115160b21b6044820152606401610401565b919050565b60006001600160a01b0382166107c35760405162461bcd60e51b815260206004820152600c60248201526b5a45524f5f4144445245535360a01b6044820152606401610401565b506001600160a01b031660009081526003602052604090205490565b600180546102fe90610f2f565b3360008181526005602090815260408083206001600160a01b03871680855290835292819020805460ff191686151590811790915590519081529192917f17307eab39ab6107e8899845ad3d59bd9653f200f220920489ca2b5937696c31910160405180910390a35050565b610863858585610466565b6001600160a01b0384163b15806108fa5750604051630a85bd0160e11b808252906001600160a01b0386169063150b7a02906108ab9033908a90899089908990600401610f86565b6020604051808303816000875af11580156108ca573d6000803e3d6000fd5b505050506040513d601f19601f820116820180604052508101906108ee9190610f69565b6001600160e01b031916145b6109395760405162461bcd60e51b815260206004820152601060248201526f155394d0519157d49150d2541251539560821b6044820152606401610401565b5050505050565b6000818152600260205260409020546060906001600160a01b03166109bf5760405162461bcd60e51b815260206004820152602f60248201527f4552433732314d657461646174613a2055524920717565727920666f72206e6f60448201526e3732bc34b9ba32b73a103a37b5b2b760891b6064820152608401610401565b600082815260096020526040902080546109d890610f2f565b80601f0160208091040260200160405190810160405280929190818152602001828054610a0490610f2f565b8015610a515780601f10610a2657610100808354040283529160200191610a51565b820191906000526020600020905b815481529060010190602001808311610a3457829003601f168201915b50505050509050919050565b6008546001600160a01b03163314610aad5760405162461bcd60e51b81526020600482015260136024820152721bdb9b1e4818591b5a5b8818d85b881b5a5b9d606a1b6044820152606401610401565b60068054906000610abd83610fda565b9091555050600780549081906000610ad483610fda565b9190505550610ae38382610aed565b6107208183610bf8565b6001600160a01b038216610b375760405162461bcd60e51b81526020600482015260116024820152701253959053125117d49150d25412515395607a1b6044820152606401610401565b6000818152600260205260409020546001600160a01b031615610b8d5760405162461bcd60e51b815260206004820152600e60248201526d1053149150511657d3525395115160921b6044820152606401610401565b6001600160a01b038216600081815260036020908152604080832080546001019055848352600290915280822080546001600160a01b0319168417905551839291907fddf252ad1be2c89b69c2b068fc378daa952ba7f163c4a11628f55a4df523b3ef908290a45050565b60008281526009602052604090206107208282611051565b6001600160e01b031981168114610c2657600080fd5b50565b600060208284031215610c3b57600080fd5b8135610c4681610c10565b9392505050565b60006020808352835180602085015260005b81811015610c7b57858101830151858201604001528201610c5f565b506000604082860101526040601f19601f8301168501019250505092915050565b600060208284031215610cae57600080fd5b5035919050565b80356001600160a01b038116811461077757600080fd5b60008060408385031215610cdf57600080fd5b610ce883610cb5565b946020939093013593505050565b600080600060608486031215610d0b57600080fd5b610d1484610cb5565b9250610d2260208501610cb5565b9150604084013590509250925092565b600060208284031215610d4457600080fd5b610c4682610cb5565b60008060408385031215610d6057600080fd5b610d6983610cb5565b915060208301358015158114610d7e57600080fd5b809150509250929050565b600080600080600060808688031215610da157600080fd5b610daa86610cb5565b9450610db860208701610cb5565b935060408601359250606086013567ffffffffffffffff80821115610ddc57600080fd5b818801915088601f830112610df057600080fd5b813581811115610dff57600080fd5b896020828501011115610e1157600080fd5b9699959850939650602001949392505050565b634e487b7160e01b600052604160045260246000fd5b60008060408385031215610e4d57600080fd5b610e5683610cb5565b9150602083013567ffffffffffffffff80821115610e7357600080fd5b818501915085601f830112610e8757600080fd5b813581811115610e9957610e99610e24565b604051601f8201601f19908116603f01168101908382118183101715610ec157610ec1610e24565b81604052828152886020848701011115610eda57600080fd5b8260208601602083013760006020848301015280955050505050509250929050565b60008060408385031215610f0f57600080fd5b610f1883610cb5565b9150610f2660208401610cb5565b90509250929050565b600181811c90821680610f4357607f821691505b602082108103610f6357634e487b7160e01b600052602260045260246000fd5b50919050565b600060208284031215610f7b57600080fd5b8151610c4681610c10565b6001600160a01b038681168252851660208201526040810184905260806060820181905281018290526000828460a0840137600060a0848401015260a0601f19601f85011683010190509695505050505050565b600060018201610ffa57634e487b7160e01b600052601160045260246000fd5b5060010190565b601f821115610720576000816000526020600020601f850160051c8101602086101561102a5750805b601f850160051c820191505b8181101561104957828155600101611036565b505050505050565b815167ffffffffffffffff81111561106b5761106b610e24565b61107f816110798454610f2f565b84611001565b602080601f8311600181146110b4576000841561109c5750858301515b600019600386901b1c1916600185901b178555611049565b600085815260208120601f198616915b828110156110e3578886015182559484019460019091019084016110c4565b50858210156111015787850151600019600388901b60f8161c191681555b5050505050600190811b0190555056fea2646970667358221220abb590ae1f3561f7b4f966e056ec665d6c3d257fc9dfa118a398efd7ff0f5d7464736f6c63430008190033","linkReferences":{}},"methodIdentifiers":{"admin()":"f851a440","approve(address,uint256)":"095ea7b3","balanceOf(address)":"70a08231","getApproved(uint256)":"081812fc","isApprovedForAll(address,address)":"e985e9c5","mint(address,string)":"d0def521","name()":"06fdde03","nextTokenId()":"75794a3c","ownerOf(uint256)":"6352211e","safeTransferFrom(address,address,uint256)":"42842e0e","safeTransferFrom(address,address,uint256,bytes)":"b88d4fde","setApprovalForAll(address,bool)":"a22cb465","supportsInterface(bytes4)":"01ffc9a7","symbol()":"95d89b41","tokenURI(uint256)":"c87b56dd","totalSupply()":"18160ddd","transferFrom(address,address,uint256)":"23b872dd"},"id":0}