{"abi":[{"type":"constructor","inputs":[],"stateMutability":"nonpayable"},{"type":"function","name":"admin","inputs":[],"outputs":[{"name":"","type":"address","internalType":"address"}],"stateMutability":"view"},{"type":"function","name":"approve","inputs":[{"name":"spender","type":"address","internalType":"address"},{"name":"id","type":"uint256","internalType":"uint256"}],"outputs":[],"stateMutability":"nonpayable"},{"type":"function","name":"balanceOf","inputs":[{"name":"owner","type":"address","internalType":"address"}],"outputs":[{"name":"","type":"uint256","internalType":"uint256"}],"stateMutability":"view"},{"type":"function","name":"getApproved","inputs":[{"name":"","type":"uint256","internalType":"uint256"}],"outputs":[{"name":"","type":"address","internalType":"address"}],"stateMutability":"view"},{"type":"function","name":"isApprovedForAll","inputs":[{"name":"","type":"address","internalType":"address"},{"name":"","type":"address","internalType":"address"}],"outputs":[{"name":"","type":"bool","internalType":"bool"}],"stateMutability":"view"},{"type":"function","name":"mint","inputs":[{"name":"to","type":"address","internalType":"address"},{"name":"tokenURI","type":"string","internalType":"string"}],"outputs":[],"stateMutability":"nonpayable"},{"type":"function","name":"mintWithERC20","inputs":[{"name":"tokenURI","type":"string","internalType":"string"}],"outputs":[],"stateMutability":"nonpayable"},{"type":"function","name":"name","inputs":[],"outputs":[{"name":"","type":"string","internalType":"string"}],"stateMutability":"view"},{"type":"function","name":"nextTokenId","inputs":[],"outputs":[{"name":"","type":"uint256","internalType":"uint256"}],"stateMutability":"view"},{"type":"function","name":"ownerOf","inputs":[{"name":"id","type":"uint256","internalType":"uint256"}],"outputs":[{"name":"owner","type":"address","internalType":"address"}],"stateMutability":"view"},{"type":"function","name":"paymentToken","inputs":[],"outputs":[{"name":"","type":"address","internalType":"contract IERC20"}],"stateMutability":"view"},{"type":"function","name":"price","inputs":[],"outputs":[{"name":"","type":"uint256","internalType":"uint256"}],"stateMutability":"view"},{"type":"function","name":"safeTransferFrom","inputs":[{"name":"from","type":"address","internalType":"address"},{"name":"to","type":"address","internalType":"address"},{"name":"id","type":"uint256","internalType":"uint256"}],"outputs":[],"stateMutability":"nonpayable"},{"type":"function","name":"safeTransferFrom","inputs":[{"name":"from","type":"address","internalType":"address"},{"name":"to","type":"address","internalType":"address"},{"name":"id","type":"uint256","internalType":"uint256"},{"name":"data","type":"bytes","internalType":"bytes"}],"outputs":[],"stateMutability":"nonpayable"},{"type":"function","name":"setApprovalForAll","inputs":[{"name":"operator","type":"address","internalType":"address"},{"name":"approved","type":"bool","internalType":"bool"}],"outputs":[],"stateMutability":"nonpayable"},{"type":"function","name":"setPaymentTokenAndPrice","inputs":[{"name":"_tokenAddress","type":"address","internalType":"address"},{"name":"_price","type":"uint256","internalType":"uint256"}],"outputs":[],"stateMutability":"nonpayable"},{"type":"function","name":"supportsInterface","inputs":[{"name":"interfaceId","type":"bytes4","internalType":"bytes4"}],"outputs":[{"name":"","type":"bool","internalType":"bool"}],"stateMutability":"view"},{"type":"function","name":"symbol","inputs":[],"outputs":[{"name":"","type":"string","internalType":"string"}],"stateMutability":"view"},{"type":"function","name":"tokenURI","inputs":[{"name":"tokenId","type":"uint256","internalType":"uint256"}],"outputs":[{"name":"","type":"string","internalType":"string"}],"stateMutability":"view"},{"type":"function","name":"totalSupply","inputs":[],"outputs":[{"name":"","type":"uint256","internalType":"uint256"}],"stateMutability":"view"},{"type":"function","name":"transferFrom","inputs":[{"name":"from","type":"address","internalType":"address"},{"name":"to","type":"address","internalType":"address"},{"name":"id","type":"uint256","internalType":"uint256"}],"outputs":[],"stateMutability":"nonpayable"},{"type":"function","name":"treasury","inputs":[],"outputs":[{"name":"","type":"address","internalType":"address payable"}],"stateMutability":"view"},{"type":"event","name":"Approval","inputs":[{"name":"owner","type":"address","indexed":true,"internalType":"address"},{"name":"spender","type":"address","indexed":true,"internalType":"address"},{"name":"id","type":"uint256","indexed":true,"internalType":"uint256"}],"anonymous":false},{"type":"event","name":"ApprovalForAll","inputs":[{"name":"owner","type":"address","indexed":true,"internalType":"address"},{"name":"operator","type":"address","indexed":true,"internalType":"address"},{"name":"approved","type":"bool","indexed":false,"internalType":"bool"}],"anonymous":false},{"type":"event","name":"Error","inputs":[{"name":"message","type":"string","indexed":false,"internalType":"string"}],"anonymous":false},{"type":"event","name":"MintedWithERC20","inputs":[{"name":"to","type":"address","indexed":false,"internalType":"address"},{"name":"tokenId","type":"uint256","indexed":false,"internalType":"uint256"},{"name":"tokenURI","type":"string","indexed":false,"internalType":"string"}],"anonymous":false},{"type":"event","name":"PaymentReceived","inputs":[{"name":"from","type":"address","indexed":false,"internalType":"address"},{"name":"amount","type":"uint256","indexed":false,"internalType":"uint256"}],"anonymous":false},{"type":"event","name":"PaymentTokenAddressSet","inputs":[{"name":"tokenAddress","type":"address","indexed":false,"internalType":"address"}],"anonymous":false},{"type":"event","name":"PriceSet","inputs":[{"name":"price","type":"uint256","indexed":false,"internalType":"uint256"}],"anonymous":false},{"type":"event","name":"Transfer","inputs":[{"name":"from","type":"address","indexed":true,"internalType":"address"},{"name":"to","type":"address","indexed":true,"internalType":"address"},{"name":"id","type":"uint256","indexed":true,"internalType":"uint256"}],"anonymous":false},{"type":"event","name":"TreasurySet","inputs":[{"name":"treasuryAddress","type":"address","indexed":false,"internalType":"address"}],"anonymous":false}],"bytecode":{"object":"0x60806040526000600655600160075534801561001a57600080fd5b5060405180604001604052806005815260200164135e53919560da1b815250604051806040016040528060048152602001631353919560e21b8152508160009081610065919061016f565b506001610072828261016f565b505060088054336001600160a01b03199182168117909255600a8054909116821790556040519081527f3c864541ef71378c6229510ed90f376565ee42d9c5e0904a984a9e863e6db44f915060200160405180910390a161022e565b634e487b7160e01b600052604160045260246000fd5b600181811c908216806100f857607f821691505b60208210810361011857634e487b7160e01b600052602260045260246000fd5b50919050565b601f82111561016a576000816000526020600020601f850160051c810160208610156101475750805b601f850160051c820191505b8181101561016657828155600101610153565b5050505b505050565b81516001600160401b03811115610188576101886100ce565b61019c8161019684546100e4565b8461011e565b602080601f8311600181146101d157600084156101b95750858301515b600019600386901b1c1916600185901b178555610166565b600085815260208120601f198616915b82811015610200578886015182559484019460019091019084016101e1565b508582101561021e5787850151600019600388901b60f8161c191681555b5050505050600190811b01905550565b6117458061023d6000396000f3fe608060405234801561001057600080fd5b50600436106101425760003560e01c806370a08231116100b8578063b88d4fde1161007c578063b88d4fde1461029e578063c87b56dd146102b1578063d0def521146102c4578063dad42259146102d7578063e985e9c5146102ea578063f851a4401461031857600080fd5b806370a082311461025e57806375794a3c1461027157806395d89b411461027a578063a035b1fe14610282578063a22cb4651461028b57600080fd5b80631f07ca561161010a5780631f07ca56146101ec57806323b872dd146101ff5780633013ce291461021257806342842e0e1461022557806361d027b3146102385780636352211e1461024b57600080fd5b806301ffc9a71461014757806306fdde031461016f578063081812fc14610184578063095ea7b3146101c557806318160ddd146101da575b600080fd5b61015a610155366004611158565b61032b565b60405190151581526020015b60405180910390f35b61017761037d565b60405161016691906111c2565b6101ad6101923660046111d5565b6004602052600090815260409020546001600160a01b031681565b6040516001600160a01b039091168152602001610166565b6101d86101d3366004611205565b61040b565b005b6006545b604051908152602001610166565b6101d86101fa3660046112d2565b6104f2565b6101d861020d36600461130f565b6108f3565b600b546101ad906001600160a01b031681565b6101d861023336600461130f565b610aba565b600a546101ad906001600160a01b031681565b6101ad6102593660046111d5565b610bb2565b6101de61026c36600461134b565b610c09565b6101de60075481565b610177610c6c565b6101de600c5481565b6101d8610299366004611374565b610c79565b6101d86102ac3660046113ab565b610ce5565b6101776102bf3660046111d5565b610dcd565b6101d86102d2366004611446565b610eea565b6101d86102e5366004611205565b610f2a565b61015a6102f8366004611494565b600560209081526000928352604080842090915290825290205460ff1681565b6008546101ad906001600160a01b031681565b60006301ffc9a760e01b6001600160e01b03198316148061035c57506380ac58cd60e01b6001600160e01b03198316145b806103775750635b5e139f60e01b6001600160e01b03198316145b92915050565b6000805461038a906114c7565b80601f01602080910402602001604051908101604052809291908181526020018280546103b6906114c7565b80156104035780601f106103d857610100808354040283529160200191610403565b820191906000526020600020905b8154815290600101906020018083116103e657829003601f168201915b505050505081565b6000818152600260205260409020546001600160a01b03163381148061045457506001600160a01b038116600090815260056020908152604080832033845290915290205460ff165b6104965760405162461bcd60e51b815260206004820152600e60248201526d1393d517d055551213d49256915160921b60448201526064015b60405180910390fd5b60008281526004602052604080822080546001600160a01b0319166001600160a01b0387811691821790925591518593918516917f8c5be1e5ebec7d5bd14f71427d1e84f3dd0314c0f7b2291e5b200ac8c7c3b92591a4505050565b600b54604051636eb1769f60e11b81523360048201523060248201526000916001600160a01b03169063dd62ed3e90604401602060405180830381865afa158015610541573d6000803e3d6000fd5b505050506040513d601f19601f820116820180604052508101906105659190611501565b9050600c54811015610608577f08c379a0afcc32b1a39302f7cb8073359698411ab5fd6e3edb2c02c0b5fba8aa6040516105c490602080825260119082015270416c6c6f77616e636520746f6f206c6f7760781b604082015260600190565b60405180910390a160405162461bcd60e51b8152602060048201526011602482015270416c6c6f77616e636520746f6f206c6f7760781b604482015260640161048d565b600b546040516370a0823160e01b81523360048201526000916001600160a01b0316906370a0823190602401602060405180830381865afa158015610651573d6000803e3d6000fd5b505050506040513d601f19601f820116820180604052508101906106759190611501565b9050600c54811015610714577f08c379a0afcc32b1a39302f7cb8073359698411ab5fd6e3edb2c02c0b5fba8aa6040516106d2906020808252600f908201526e42616c616e636520746f6f206c6f7760881b604082015260600190565b60405180910390a160405162461bcd60e51b815260206004820152600f60248201526e42616c616e636520746f6f206c6f7760881b604482015260640161048d565b600b54600a54600c546040516323b872dd60e01b81523360048201526001600160a01b039283166024820152604481019190915260009291909116906323b872dd906064016020604051808303816000875af1158015610778573d6000803e3d6000fd5b505050506040513d601f19601f8201168201806040525081019061079c919061151a565b905080610834577f08c379a0afcc32b1a39302f7cb8073359698411ab5fd6e3edb2c02c0b5fba8aa6040516107f3906020808252600e908201526d14185e5b595b9d0819985a5b195960921b604082015260600190565b60405180910390a160405162461bcd60e51b815260206004820152600e60248201526d14185e5b595b9d0819985a5b195960921b604482015260640161048d565b600c546040805133815260208101929092527f6ef95f06320e7a25a04a175ca677b7052bdd97131872c2192525a629f51be770910160405180910390a16006805490600061088183611537565b9091555050600780546000918261089783611537565b9190505590506108a7338261101c565b6108b18186611127565b7f74c7368747ff846c819d171c36b9d942b04cb002dfbeaaed0565c8046f4eafd83382876040516108e49392919061155e565b60405180910390a15050505050565b6000818152600260205260409020546001600160a01b038481169116146109495760405162461bcd60e51b815260206004820152600a60248201526957524f4e475f46524f4d60b01b604482015260640161048d565b6001600160a01b0382166109935760405162461bcd60e51b81526020600482015260116024820152701253959053125117d49150d25412515395607a1b604482015260640161048d565b336001600160a01b03841614806109cd57506001600160a01b038316600090815260056020908152604080832033845290915290205460ff165b806109ee57506000818152600460205260409020546001600160a01b031633145b610a2b5760405162461bcd60e51b815260206004820152600e60248201526d1393d517d055551213d49256915160921b604482015260640161048d565b6001600160a01b0380841660008181526003602090815260408083208054600019019055938616808352848320805460010190558583526002825284832080546001600160a01b03199081168317909155600490925284832080549092169091559251849392917fddf252ad1be2c89b69c2b068fc378daa952ba7f163c4a11628f55a4df523b3ef91a4505050565b610ac58383836108f3565b6001600160a01b0382163b1580610b6e5750604051630a85bd0160e11b8082523360048301526001600160a01b03858116602484015260448301849052608060648401526000608484015290919084169063150b7a029060a4016020604051808303816000875af1158015610b3e573d6000803e3d6000fd5b505050506040513d601f19601f82011682018060405250810190610b62919061158e565b6001600160e01b031916145b610bad5760405162461bcd60e51b815260206004820152601060248201526f155394d0519157d49150d2541251539560821b604482015260640161048d565b505050565b6000818152600260205260409020546001600160a01b031680610c045760405162461bcd60e51b815260206004820152600a6024820152691393d517d3525395115160b21b604482015260640161048d565b919050565b60006001600160a01b038216610c505760405162461bcd60e51b815260206004820152600c60248201526b5a45524f5f4144445245535360a01b604482015260640161048d565b506001600160a01b031660009081526003602052604090205490565b6001805461038a906114c7565b3360008181526005602090815260408083206001600160a01b03871680855290835292819020805460ff191686151590811790915590519081529192917f17307eab39ab6107e8899845ad3d59bd9653f200f220920489ca2b5937696c31910160405180910390a35050565b610cf08585856108f3565b6001600160a01b0384163b1580610d875750604051630a85bd0160e11b808252906001600160a01b0386169063150b7a0290610d389033908a908990899089906004016115ab565b6020604051808303816000875af1158015610d57573d6000803e3d6000fd5b505050506040513d601f19601f82011682018060405250810190610d7b919061158e565b6001600160e01b031916145b610dc65760405162461bcd60e51b815260206004820152601060248201526f155394d0519157d49150d2541251539560821b604482015260640161048d565b5050505050565b6000818152600260205260409020546060906001600160a01b0316610e4c5760405162461bcd60e51b815260206004820152602f60248201527f4552433732314d657461646174613a2055524920717565727920666f72206e6f60448201526e3732bc34b9ba32b73a103a37b5b2b760891b606482015260840161048d565b60008281526009602052604090208054610e65906114c7565b80601f0160208091040260200160405190810160405280929190818152602001828054610e91906114c7565b8015610ede5780601f10610eb357610100808354040283529160200191610ede565b820191906000526020600020905b815481529060010190602001808311610ec157829003601f168201915b50505050509050919050565b60068054906000610efa83611537565b90915550506007805460009182610f1083611537565b919050559050610f20838261101c565b610bad8183611127565b6008546001600160a01b03163314610f8f5760405162461bcd60e51b815260206004820152602260248201527f4f6e6c792061646d696e2063616e2073657420746f6b656e20616e6420707269604482015261636560f01b606482015260840161048d565b600b80546001600160a01b0319166001600160a01b0384169081179091556040519081527f93b49b2b1038531f3fb7301e978b922135804ae0a7dca62d4d3cc51c80dbc1999060200160405180910390a1600c8190556040518181527f6bfd5e75539a9d2626425a2e2922675256b219fe546d63dad56011759b9a2f669060200160405180910390a15050565b6001600160a01b0382166110665760405162461bcd60e51b81526020600482015260116024820152701253959053125117d49150d25412515395607a1b604482015260640161048d565b6000818152600260205260409020546001600160a01b0316156110bc5760405162461bcd60e51b815260206004820152600e60248201526d1053149150511657d3525395115160921b604482015260640161048d565b6001600160a01b038216600081815260036020908152604080832080546001019055848352600290915280822080546001600160a01b0319168417905551839291907fddf252ad1be2c89b69c2b068fc378daa952ba7f163c4a11628f55a4df523b3ef908290a45050565b6000828152600960205260409020610bad828261164f565b6001600160e01b03198116811461115557600080fd5b50565b60006020828403121561116a57600080fd5b81356111758161113f565b9392505050565b6000815180845260005b818110156111a257602081850181015186830182015201611186565b506000602082860101526020601f19601f83011685010191505092915050565b602081526000611175602083018461117c565b6000602082840312156111e757600080fd5b5035919050565b80356001600160a01b0381168114610c0457600080fd5b6000806040838503121561121857600080fd5b611221836111ee565b946020939093013593505050565b634e487b7160e01b600052604160045260246000fd5b600082601f83011261125657600080fd5b813567ffffffffffffffff808211156112715761127161122f565b604051601f8301601f19908116603f011681019082821181831017156112995761129961122f565b816040528381528660208588010111156112b257600080fd5b836020870160208301376000602085830101528094505050505092915050565b6000602082840312156112e457600080fd5b813567ffffffffffffffff8111156112fb57600080fd5b61130784828501611245565b949350505050565b60008060006060848603121561132457600080fd5b61132d846111ee565b925061133b602085016111ee565b9150604084013590509250925092565b60006020828403121561135d57600080fd5b611175826111ee565b801515811461115557600080fd5b6000806040838503121561138757600080fd5b611390836111ee565b915060208301356113a081611366565b809150509250929050565b6000806000806000608086880312156113c357600080fd5b6113cc866111ee565b94506113da602087016111ee565b935060408601359250606086013567ffffffffffffffff808211156113fe57600080fd5b818801915088601f83011261141257600080fd5b81358181111561142157600080fd5b89602082850101111561143357600080fd5b9699959850939650602001949392505050565b6000806040838503121561145957600080fd5b611462836111ee565b9150602083013567ffffffffffffffff81111561147e57600080fd5b61148a85828601611245565b9150509250929050565b600080604083850312156114a757600080fd5b6114b0836111ee565b91506114be602084016111ee565b90509250929050565b600181811c908216806114db57607f821691505b6020821081036114fb57634e487b7160e01b600052602260045260246000fd5b50919050565b60006020828403121561151357600080fd5b5051919050565b60006020828403121561152c57600080fd5b815161117581611366565b60006001820161155757634e487b7160e01b600052601160045260246000fd5b5060010190565b60018060a01b0384168152826020820152606060408201526000611585606083018461117c565b95945050505050565b6000602082840312156115a057600080fd5b81516111758161113f565b6001600160a01b038681168252851660208201526040810184905260806060820181905281018290526000828460a0840137600060a0848401015260a0601f19601f85011683010190509695505050505050565b601f821115610bad576000816000526020600020601f850160051c810160208610156116285750805b601f850160051c820191505b8181101561164757828155600101611634565b505050505050565b815167ffffffffffffffff8111156116695761166961122f565b61167d8161167784546114c7565b846115ff565b602080601f8311600181146116b2576000841561169a5750858301515b600019600386901b1c1916600185901b178555611647565b600085815260208120601f198616915b828110156116e1578886015182559484019460019091019084016116c2565b50858210156116ff5787850151600019600388901b60f8161c191681555b5050505050600190811b0190555056fea2646970667358221220e54e48f56d2d9079af772109eb286d36d27b72242c87e529b13b3b1ef95e2db164736f6c63430008190033","linkReferences":{}},"methodIdentifiers":{"admin()":"f851a440","approve(address,uint256)":"095ea7b3","balanceOf(address)":"70a08231","getApproved(uint256)":"081812fc","isApprovedForAll(address,address)":"e985e9c5","mint(address,string)":"d0def521","mintWithERC20(string)":"1f07ca56","name()":"06fdde03","nextTokenId()":"75794a3c","ownerOf(uint256)":"6352211e","paymentToken()":"3013ce29","price()":"a035b1fe","safeTransferFrom(address,address,uint256)":"42842e0e","safeTransferFrom(address,address,uint256,bytes)":"b88d4fde","setApprovalForAll(address,bool)":"a22cb465","setPaymentTokenAndPrice(address,uint256)":"dad42259","supportsInterface(bytes4)":"01ffc9a7","symbol()":"95d89b41","tokenURI(uint256)":"c87b56dd","totalSupply()":"18160ddd","transferFrom(address,address,uint256)":"23b872dd","treasury()":"61d027b3"},"id":26}